:020000040800F2
:10000000F01400204D0100084D1200083F110008B7
:1000100000000000000000000000000000000000E0
:100020000000000000000000000000009512000821
:1000300000000000000000000B01000899120008F9
:100040005F0100085F0100085F0100085F01000810
:100050005F0100085F0100085F0100085F01000800
:100060005F0100085F0100085F0100085F010008F0
:100070005F0100085F0100085F0100085F010008E0
:100080005F010008811300085F0100080000000004
:100090005F0100085F0100085F0100085F010008C0
:1000A0005F0100085F0100085F0100085F010008B0
:1000B0005F0100085F0100085F0100085F010008A0
:1000C0000348854600F0DCF800480047891900081D
:1000D000F0140020084B19680868203080F3098864
:1000E000022080F31488BFF36F8F3FBCAE4608BC7C
:1000F00004BC62B61847000018000020EFF310801F
:1001000072B6704780F310887047EFF309800E4B8A
:100110001A6820381060F0C044464D4656465F4687
:10012000F0C008B572B602F05DF862B60CBC11689A
:1001300008681030F0C8A046A946B246BB4680F316
:1001400009882038F0C81847180000200448804764
:1001500004480047FEE7FEE7FEE7FEE7FEE7FEE7AE
:100160002D130008C100000830B50B4601460020E1
:100170002022012409E00D46D5409D4205D31D46AD
:100180009540491B2546954040191546521E002DA5
:10019000F1DC30BDF0B51FB40646002082B0054644
:1001A0004024019100901BE0019922460F46304601
:1001B00000F054F8049A059B801A994110D3104618
:1001C0001946224600F03AF8361A8F410197224626
:1001D00001200021009F00F031F838184D410090B7
:1001E0002046641E0028DFDC019B00982946324629
:1001F00007B0F0BD03460B439B0703D009E008C9D5
:10020000121F08C0042AFAD203E00B780370401CC6
:10021000491C521EF9D27047D2B201E00270401C54
:10022000491EFBD270470022F6E710B513460A4676
:1002300004461946FFF7F0FF204610BD10B5202AEE
:1002400004DB0146203A9140002010BD914020235C
:100250009C1A0346E3401943904010BD10B5202A74
:1002600004DB0846203AD040002110BD0B46D340A5
:10027000D0402024A21A91400843194610BD000026
:10028000064C0125064E05E0E36807CC2B430C3CE9
:1002900098471034B442F7D3FFF716FF782B0008C5
:1002A000982B0008F8B500230124A7E027469F40BB
:1002B0003A4070D04D68022D01D0122D14D1DD08C6
:1002C000AD002D1800952D6A5E07AC46F50E0F2681
:1002D000AE46AE406546B543AC460E697546AE4087
:1002E00065462E43009D2E624D68012D05D0022DDE
:1002F00003D0112D01D0122D16D185680326AC46EE
:100300005D00AE46AE406546B543AC46CE68754628
:10031000AE4065462E43866046680D79BE43ED06C5
:10032000ED0F9D403543456006685F000325BD40E5
:10033000AE46AE430D79B446AE07B60FBE40654635
:100340002E430660C6687546AE438D68BD40354392
:10035000C5604D68ED0050D52B4D6E6B26436E6326
:100360009E082A4DB6007519AC46AD689E07360F3B
:100370000F27B740BD4305273F07B84201D10027EB
:100380001AE0234FB84201D1012715E0214FB842AE
:1003900002D1022710E030E01F4FB84201D10327FD
:1003A0000AE01E4FB84201D1042705E01C4FB842B5
:1003B00001D1052700E00627B7402F436546AF600F
:1003C000184D2E684F689643FF0300D516432E60E4
:1003D0006E684F689643BF0300D516436E60AE68E3
:1003E0004F689643FF0200D51643AE60EE684F6833
:1003F0009643BF0200D51643EE605B1C0A681546A3
:10040000DD4000D052E7F8BD00100240000001407E
:100410000004005000080050000C00500010005074
:10042000001C0050000401400069084000D0012079
:100430007047002A01D081617047816270470000D7
:100440000148006870470000100000200248016861
:10045000491C0160704700001000002010B50848DA
:1004600000240168402211430160204600F00AF890
:10047000002801D0012401E000F03CF8204610BD26
:100480000020024000B5014687B00022112000F094
:100490004DF8112000F040F81148816B10221143F3
:1004A000816305A9684600F0D1F900F0EFF90D4924
:1004B000FFF75AFE0D490C4A0A600D4A401ECA60F9
:1004C0004860002008618860084600F086FC00282B
:1004D00002D0012007B000BD044800F099FCF9E704
:1004E0000010024040420F0000100040C4030020F2
:1004F000E703000010B50748416B01221143416337
:10050000816B02041143816303210022481F00F024
:100510000DF810BD00100240C106C90E0120884030
:10052000014908607047000000E100E010B500F0EC
:100530008FFE10BDF8B504460068664D810601D4F3
:1005400000057DD5634E0027403EB06BC00004D44B
:10055000B06B31040843B06301275F480168C905E7
:1005600011D40168821511430160FFF769FF009003
:1005700005E0FFF765FF0099401A642844D8564803
:100580000068C005F5D531680320000562680140A8
:100590001040884205D10323A0681B0518408842FB
:1005A00008D09003800F032804D13068800301D560
:1005B0000120F8BD286903210904084029D00A4018
:1005C000824202D02278920606D4A2680A40824271
:1005D0001FD0208800051CD528692A69884301217D
:1005E000C9040A432A612A698A432A612861C0052D
:1005F0000FD5FFF725FF009008E0FFF721FF0099D6
:10060000411A3648814201D90320F8BD2869800586
:10061000F3D561688803800F032805D1326800058F
:10062000824301400A433260286903226168120450
:10063000114008432861002F06D0B06B012100E073
:1006400002E009078843B0632078C00705D0E86856
:10065000E168800880000843E8602078800705D5BD
:10066000E8680C21884321690843E8602078400746
:1006700006D5E86803218902884361690843E86078
:100680002078000706D5E868032109038843A1699B
:100690000843E8602088C00506D5E86803210904FE
:1006A0008843E1690843E8602078400606D5E86899
:1006B000012189068843616A0843E86020780006C2
:1006C00006D5E868032189048843216A0843E86065
:1006D0000020F8BD40100240007000408813000068
:1006E000F8B50E4605007DD053480068C007C00F1E
:1006F000B0420AD2504801684908490031430160BC
:100700000068C007C00FB04271D128784B4C8007F9
:1007100005D5E068F0218843A9680843E06028789F
:10072000C00752D06868022817D0032818D0216863
:10073000012818D08905002959DAE168890889005B
:100740000143E160FFF77CFE69680746022912D089
:1007500003291CD0012926D033E021688903EAE768
:1007600021688901E7E74907E5E7FFF769FEC11B53
:100770003348814223D8E0680007800F0228F4D173
:1007800023E0FFF75DFEC11B2D48814217D8E068CA
:100790000007800F0328F4D117E0FFF751FEC11BBB
:1007A000274881420BD8E0680007800F0128F4D168
:1007B0000BE0FFF745FEC11B2148814201D9032010
:1007C000F8BDE0680007800FF3D11B480168C90736
:1007D000C90FB1420DD90168490849003143016090
:1007E000006800E003E0C007C00FB04201D0012064
:1007F000F8BD2878400706D5E0680721090288433C
:10080000E9680843E0602878000707D5E068072119
:10081000C90288432969C9000843E06000F056F81E
:10082000E168084A0906090F515CC840064908609A
:100830000020FFF727FEF8BD002002400010024014
:1008400088130000302B00081400002010B50F2280
:1008500002600C4AD3689B079B0F4360D368F02467
:1008600023408360D46807231B021C40C460D26805
:10087000D2081A40026104480068C007C00F08602F
:1008800010BD00000010024000200240044805494D
:100890000068C968044A4905490F515CC84070475F
:1008A0001400002000100240492B000804480549AC
:1008B0000068C968044A8904490F515CC840704700
:1008C0001400002000100240492B000810B5184AFF
:1008D000D1680C20084004280BD0082810D00C2820
:1008E00010D050680004410F0120C003491C88400B
:1008F00010BD1068C00601D50E4810BD0E4810BDD1
:100900000E4810BD88020E4B000F185C0902D36818
:10091000890F491CDB0301D5084A05E01268D2069D
:1009200001D5044A00E0044A5043FFF71DFC10BD06
:100930000010024000093D000024F40000127A007B
:10094000402B0008FEB505007ED0F94CE7680C206E
:10095000E66807400120000406402878C00747D019
:10096000082F05D00C2F0AD101200004864206D1A1
:10097000206880033CD568680028E5D038E0012075
:1009800069680004814203D121680143216011E0BC
:10099000052301221B0492049942216802D11143CC
:1009A0002160F1E7814321602168014000912068C6
:1009B00090432060686800280DD0FFF741FD00904B
:1009C00005E0FFF73DFD0099401A64287ED82068B5
:1009D0008003F6D50CE0FFF733FD009005E0FFF74C
:1009E0002FFD0099401A6428F0D820688003F6D4BF
:1009F000287880075CD5E868810604D52268202124
:100A00000A43226088430923042F0DD00C2F01D103
:100A1000002E09D000283BD0216899430143216072
:100A2000FFF70EFD064627E02168490701D500289B
:100A30008AD061681F22120291432A69120211436F
:100A400061602168994300E0C3E101432160FFF741
:100A50003DFFE16809060A0FB649895CC840B649FE
:100A600008600020FFF70EFD002873D120E0FFF79B
:100A7000E7FC801B0228A9D820684007F7D56068EA
:100A80001F210902884329690902084360600FE0B9
:100A90002068400840002060FFF7D2FC064604E0D2
:100AA000FFF7CEFC801B022890D820684007F7D4BF
:100AB0002878C00660D5002F0DD0E86900284AD0FC
:100AC0002068FF2101310843206000E0E8E0FFF7E3
:100AD000B7FC06462CE02068800502D5E8690028AE
:100AE000A6D06068072149038843696A08436060AB
:100AF0006068298C0002000A090608436060686A81
:100B0000410B0120C003491C8840E16809060A0F17
:100B10008849895CC840884908600020FFF7B2FC1A
:100B2000002817D128E0FFF78BFC801B0228A2D8F1
:100B300020688005F7D56068072149038843696A02
:100B4000084360606068298C0002000A09060843B7
:100B5000606011E023E12168FF20013081432160C2
:100B6000FFF76EFC064604E0FFF76AFC801B0228D4
:100B70009AD820688005F7D42878704E000724D5CD
:100B800068690028306910D0012108433061FFF7FF
:100B900057FC009005E0FFF753FC0099401A02282B
:100BA0007ED830698007F6D50FE0400840003061FC
:100BB000FFF746FC009005E0FFF742FC0099401A61
:100BC00002286DD830698007F6D42878400764D5AC
:100BD00000200290A06BC00006D4A06B0121090781
:100BE0000843A0630120029055480168C90511D44B
:100BF0000168821511430160FFF722FC009005E0B7
:100C0000FFF71EFC0099401A642849D84C48006838
:100C1000C005F5D5FF20AA680130824203D13169B1
:100C20000143316111E001218902002A07D0052327
:100C30001B029A4203D132690A433261EFE73269FB
:100C400082433261306988433061A86800280ED041
:100C5000FFF7F6FB009006E0FFF7F2FB0099411A60
:100C6000384881421CD830698005F5D50DE0FFF782
:100C7000E7FB009006E0FFF7E3FB0099411A3148DB
:100C800081420DD830698005F5D40298002804D03F
:100C9000A06B012109078843A0632878800600E043
:100CA0007CE02ED52848A9694314002916D0A268F3
:100CB00001210A43A260626B0A436263016A19431D
:100CC0000162FFF7BDFB064604E0FFF7B9FB801B9E
:100CD000022863D8A0688007F7D512E0A168490808
:100CE0004900A160016A99430162FFF7A9FB06462A
:100CF00004E0FFF7A5FB801B02284FD8A0688007FF
:100D0000F7D4A86A002866D00C2F4DD001263606ED
:100D10000228206805D0B0432060FFF791FB05460C
:100D20003EE0B0432060FFF78BFB074613E0000076
:100D300000100240302B0008140000204010024038
:100D4000007000408813000000000140FFF778FBAE
:100D5000C01B022822D820688001F7D4296BE86ADA
:100D6000E2680843696BFD231B049A43114308435F
:100D7000E060206830432060FFF762FB054604E036
:100D8000FFF75EFB401B022808D820688001F7D5DA
:100D900021E0FFF755FB401B022801D90320FEBDCF
:100DA00020688001F5D416E00128F8D0E068012120
:100DB0000904EA6A014091420BD10F2189042A6B90
:100DC0000140914205D1032189050840696B8842A1
:100DD00001D00120FEBD0020FEBD70B5040005D08D
:100DE00025462035687E002802D006E0012070BD2F
:100DF00000202876204600F00AF802206876211D9F
:100E0000206800F0C5FA01206876002070BD7047A8
:100E10000268D36801210B43D360006882685207DF
:100E2000520F062A02D002680A430260002070476F
:100E3000704770B50446006801690025C9438907F9
:100E4000002915DBC168C943890711D4E91E016176
:100E500001202076206880698007204602D0FFF7B5
:100E6000E7FF04E000F078F8204600F076F82576F9
:100E700020680169C943490717D4C168C9434907B4
:100E800013D40421C94301610220207620688069BF
:100E90008005800F204602D0FFF7CAFF04E000F073
:100EA0005BF8204600F059F8257620680169C943AF
:100EB000090716D4C168C943090712D40821C943D8
:100EC0000161042020762068C0698007204602D096
:100ED000FFF7AEFF04E000F03FF8204600F03DF8D9
:100EE000257620680169C943C90617D4C168C9437A
:100EF000C90613D41021C943016108202076206857
:100F0000C0698005800F204602D0FFF791FF04E002
:100F100000F022F8204600F020F8257620680169CC
:100F2000C943C90708D1C168C943C90704D1891E8B
:100F30000161204600F012F820680169C9434906A2
:100F400009D4C168C943490605D44021C943016198
:100F5000204600F00DF870BD7047704710B500686E
:100F60000249884201D1FFF771FA10BD001000401C
:100F7000704710B5040003D0606F002802D007E06E
:100F8000012010BD002170200155204600F026F8F8
:100F900024206067206801684908490001602046F4
:100FA00000F086FB0128ECD0606A002802D02046C1
:100FB00000F0E8FA206841680922D20291434160BA
:100FC000206881682A22914381602068016801229B
:100FD00011430160204600F03BFB10BD70B586B0A8
:100FE000044614216846FFF71EF91D4E25680022AD
:100FF0001C48022303240421B54214D1856BCE037F
:1010000035438563C56A01263543C562C06A0491CC
:10101000304005900C20009005200394019302922B
:101020006946000717E0104EB54216D1856B0126C0
:10103000F60435438563C56A0D43C562C06A0394EF
:101040000840059003208002009006200490019340
:10105000029269460548FFF725F906B070BD000009
:101060000044004000100240004C004000080050C6
:10107000FFB50446406F83B017460D4620285CD16B
:10108000002D0AD0002F08D0A168C001814207D1ED
:101090002069002804D1E80702D0012007B0F0BD84
:1010A000204660300290007C012846D00298012141
:1010B00001740020E06721206067FFF7C1F9264630
:1010C00040360190378277820120A1680003814277
:1010D00002D12069002802D02F46002511E0002708
:1010E0000FE000228021204600F000FC002815D1EE
:1010F000002F15D02168387888627F1C708A401EC6
:101100007082708A019B002806980090E9D1002225
:101110004021204600F0EAFB002808D00320BDE76C
:1011200028882168C005C00D8862AD1CE6E7202034
:101130006067029900200874B0E70220AEE7FEE77E
:10114000F0B587B014216846FFF76DF82348C26AEE
:1011500004210A43C262C26A0A400592C26A80211F
:101160000A43C262C26A0A400592C16A0125294344
:10117000C162C16A29400591C26A02210A43C26262
:10118000C06AFF260840059034360520002231460B
:101190000007FFF74EF9124F002239461148FFF7BA
:1011A00048F96803002400900194694602940E48AF
:1011B000FFF778F80520029469460007009601952C
:1011C0000394FFF76FF8029469460648009701956B
:1011D0000394FFF767F807B0F0BD0000001002406D
:1011E00031040000000400500008005010B50A4807
:1011F00008490160E1214902416000218160C1602C
:1012000001618161C1610C22016242614162FFF7AB
:10121000B0FE10BD004400407000002010B50A4828
:1012200008490160E1214902416000218160C160FB
:1012300001618161C1610C22016242614162FFF77B
:1012400098FE10BD004C0040F000002070470000E8
:101250008307FF22DB0E9A408907090E9940002878
:101260000BDA0007000F0838830808489B0018189D
:10127000C36993430B43C3617047830804489B00D1
:101280001B181868904308431860704700ED00E091
:1012900000E400E07047000010B5FEF72FFF0446A1
:1012A00001F088FA002803D00120034900074860B4
:1012B0002046FEF727FF10BD00ED00E010B59EB000
:1012C00038216846FEF7AFFF142118A8FEF7ABFFE0
:1012D00028210EA8FEF7A7FF134801680322D202B7
:1012E0009143C214891801601020009001200790DA
:1012F000052000244003099008940A946846FFF7EB
:1013000021FB0F20189019941A941B9400211C940F
:1013100018A8FFF7E5F902200E9012940EA8FFF727
:1013200009F91EB010BD00000070004010480168AF
:10133000821511430160C1680E4A1140C160016805
:101340000D4A1140016081684908490081600168C7
:101350000122920491430160C168FD22120491436D
:10136000C160002101610549C00388607047000029
:10137000001002400C40FF88F6FFF6FE00ED00E092
:1013800010B50248FFF755FD10BD0000C403002052
:10139000F0B502680124A407144D154E154FA04264
:1013A00005D0A84203D0B04201D0B84204D11346C0
:1013B000702293434A681A43A04205D0A84203D042
:1013C000B04201D0B84204D103231B029A43CB6838
:1013D0001A4380239A430B691A4302608A68C262E7
:1013E0000968816201214161F0BD000000040040F4
:1013F000000801400014014086B0142218A168467C
:10140000FEF7F8FE052600273607FF43194C7D2519
:10141000ED00002201213046FFF70BF801220221E6
:101420003046FFF706F83946A06801F047F8052373
:10143000142269461048FFF71BFE00231A4619467E
:10144000A06800F0AFFF284600F0DEFA002202217B
:101450003046FEF7EEFF284600F0D6FAD9E7000046
:1014600048656C6C6F2066726F6D20746872656180
:1014700064310D0A000000207000002086B01422A4
:101480001EA16846FEF7B6FE01277F03204C214DC2
:10149000FF26F53639462048FEF7C6FF0028F9D169
:1014A000012200231146E06801F022F900222021E8
:1014B0002846FEF7BEFF012210212846FEF7B9FF9D
:1014C0000021C943A06800F0F9FF052314226946F2
:1014D0001248FFF7CDFD00231A461946A06800F018
:1014E00061FF304600F090FA002210212846FEF7F6
:1014F000A0FF304600F088FACCE7000048656C6C2D
:101500006F2066726F6D20746872656164320D0AB7
:10151000000000200004005000080050700000206F
:1015200086B0142210A16846FEF764FE0025134C15
:10153000ED432B4605AAFF21002001F099F90598FB
:10154000C007F6D02946A06800F0B8FF0523142292
:1015500069460B48FFF78CFD00231A461946A06820
:1015600000F020FFE5E7000048656C6C6F206672B4
:101570006F6D20746872656164330D0A000000208D
:101580007000002010B5818CC90707D001684A6837
:1015900001235B049A43836A1A434A60818C89075A
:1015A00007D501684A6801231B049A43C36A1A439A
:1015B0004A60818C490707D501684A6801239B046A
:1015C0009A43036B1A434A60818C090707D5016867
:1015D0004A680123DB039A43436B1A434A60818CB8
:1015E000C90607D50268916801231B039943836BE1
:1015F00019439160818C890607D501688A680123A7
:101600005B039A43C36B1A438A60818C490612D5E7
:1016100003685A6801210905046C8A4322435A6011
:10162000026C8A4207D10268516803235B05994323
:10163000436C19435160818C090607D501684A68DB
:101640000123DB04806C9A4302434A6010BD000012
:10165000F8B500260446C667FEF7F2FE0546206888
:101660000068124F000709D501212B4600224905C9
:101670002046009700F03AF900280DD12068006854
:1016800040070BD501212B460022890520460097F3
:1016900000F02CF9002801D00320F8BD202060675D
:1016A000A067603426740020F8BD0000FFFFFF0132
:1016B000F8B504462669A268E769324366691020D6
:1016C00000253E43236832437B491E687B4F3E40E2
:1016D00016431E602268536803263603B343E66848
:1016E000334353602368A2698B4201D0266A324398
:1016F0009E680B273F02BE4316439E60704E2368D0
:10170000704AB3420CD1D2689207920F06D0012AD8
:101710003ED0022A3AD0032A26D124E0012023E039
:10172000694EB3420AD1D2680C2632402CD0042A2A
:101730002ED0082A2AD00C2A16D114E0634EB342C8
:1017400022D0634EB3421FD08B420DD1D668032204
:101750009202164018D001229202B61A18D0B61A78
:1017600014D0964200D10820564A0126403A594FDB
:10177000F6038B4236D100280CD002280DD0042865
:1017800012D008281FD11CE00020EDE70220EBE773
:101790000420E9E7FFF77AF808E01068C00601D5F1
:1017A000384605E04C4803E0FFF790F8002873D076
:1017B000626851005118814205D81103814202D359
:1017C00003E03046F4E7012566E0010E060250080A
:1017D000002330185941FEF7DDFC03210902411AAC
:1017E0003E4A55E0E169B14232D1030000F0AFF862
:1017F00009070A0D06250606062B0600E3E7FFF794
:1018000045F81CE0FFF752F819E010686168C0065F
:1018100002D54808324A01E0324A48088018FEF7EB
:10182000A3FC80B20146304A10399142CBD8511CFA
:1018300001400007400F08432CE0FFF747F86168BC
:1018400040004A08EAE76168012248081204E5E717
:10185000030000F07CF809070A0D06260606062C90
:101860000600B0E7FFF712F81DE0FFF71FF81AE0D7
:1018700010686168C00602D54808C01902E0164821
:101880004A081018FEF770FC80B20146164A10395B
:10189000914298D82168C86000202066606628467A
:1018A000F8BDFFF713F861684A088018EAE7616835
:1018B00048088019E6E7000000480040F369FFEFA0
:1018C000003801404010024000440040004C0040FD
:1018D0000050004000093D000024F400FFFC0F0010
:1018E00000127A000048E801EFFF0000FFB581B068
:1018F00017460E4604460A9D09E0681C07D0FEF70D
:101900009FFD0499401AA8420CD8002D0AD02068E7
:10191000C1693046884318D00020B842EDD000207D
:1019200005B0F0BD20680168FF22A132914301603B
:101930002068816849084900816020206067A067AD
:101940000020603420740320EAE70120E5E730B48A
:101950007446641E2578641CAB4200D21D46635D4C
:101960005B00E31830BC184702E008C8121F08C12A
:10197000002AFAD170477047002001E001C1121F10
:10198000002AFBD17047000098B0FEF767FDFFF713
:1019900095FCFFF7D5FBFFF729FCFFF73FFC002084
:1019A0001590169015A800F03CF8124C1C22A0606F
:1019B00011496846FEF71EFC0021684600F03DF81C
:1019C0000D4920601C221C3107A8FEF713FC0021E2
:1019D00007A800F032F8084960601C2238310EA8D0
:1019E000FEF708FC00210EA800F027F8E06000F0E8
:1019F00013F8FEE700000020DC2A00080146002062
:101A0000842900D0C81C704710B5002800D10120DF
:101A100000F044FB002010BD10B500F0AFFB00202B
:101A200010BD10B54168002903D0012000F039FC39
:101A300010BD012000F02AFC10BD7FB50D46044604
:101A400041690820205E002911D0A16900290ED02B
:101A5000FFF7D4FF6B46A269616907C32B46226971
:101A60002168606800F021FE039004B070BDFFF7AC
:101A7000C5FF03A901910090208A2B4682B22168FC
:101A8000606800F0E9FD012801D00020EDE703982F
:101A9000EBE70000F8B5134C0F4666690546206871
:101AA000001D00F063FA681C07D1002F05D02168E3
:101AB0000D48091D00F09EFAF8BD206875194560B3
:101AC0002168B54204D2A068091D00F07BFAF8BD78
:101AD0006068091D00F076FA206B8542F7D2256315
:101AE000F8BD000018000020DC040020F8B5054611
:101AF00000F08CFA294C2069401C20612068284F96
:101B0000002803D0E069002827D02CE02560206958
:101B1000012828D1002614207043C01900F044FA8F
:101B2000761C072EF7D31E488C3000F03DFA1C4877
:101B3000A03000F039FA1A48B43000F035FA1848ED
:101B4000C83000F031FA1648DC3000F02DFA1448A5
:101B50008C3060601430A06005E02068E96AC06ADB
:101B6000884200D82560E06A401CE062E86AA1690A
:101B7000884200D9A06114214843C019291D00F0F2
:101B800039FA00F04FFAE069002806D02068E96AC7
:101B9000C06A884201D200F075FAF8BD1800002032
:101BA00000040020F8B5856B174604460026026C39
:101BB000002A11D0002F19D0E068FEF71BFBE16866
:101BC000206C091AE1602268914202D26168081A09
:101BD000E060022F17D019E02068002816D1606855
:101BE00000F084FE0646002060600FE0A068FEF76B
:101BF00001FB216CA0684018A0606168884205D391
:101C00002068A06002E0002D00D06D1E6D1CA56351
:101C10003046F8BD10B504464030407C002805D061
:101C2000012806D0022807D072B6FEE7206B00F02C
:101C300007FA204600F004FA10BD000003210E4808
:101C40008902420705D0C01DC0080B4AC000821A95
:101C5000891A0A4A0023411809C20839C908C9006B
:101C6000183A11604B600B600B1A0AC09360012098
:101C7000C0075360D0607047F0040020640000206B
:101C80000F4E104C3746C83F11E000F0BFF9F06826
:101C9000C568281D00F06AF92069401E2061E068CF
:101CA000401EE06000F0BEF92846FFF7B3FFE06891
:101CB0000028EAD138680128F9D900F0E3F9F6E7FD
:101CC000C80400201800002010B5002807D000210B
:101CD000416001600B460A46C16000F063FB10BD25
:101CE00010B503460298002906D00260C363016460
:101CF000012100F021FB10BD0060F7E7FFB581B0C6
:101D00000C9C9000236B001F1818C6080A9DF60053
:101D1000700701D072B6FEE723180A5C20331A75EB
:101D20000A5C002A02D0401C1028F5D3204640301F
:101D300000270090C770072D00D30625E562A76431
:101D4000201D656400F03BF92046183000F037F99B
:101D500024610720401B6462A061E7640098077457
:101D60003046049A019900F0F1F820600B980028A1
:101D700000D0046005B0F0BD30B5114900E0114657
:101D80000A688242FBD34B685C18844203D14068E6
:101D900018184860084643681C18944209D1084C3A
:101DA000103C2468A24209D052689A1842600A681E
:101DB00012680260814200D0086030BD0460F9E71B
:101DC0006400002010B5044600F020F9A06B002844
:101DD00004D0002400F026F9204610BD0124F9E7C4
:101DE000064841680968002905D04168C968C96882
:101DF0004968016370470021C943FAE718000020D1
:101E000003480068401C72B600D0FEE7FEE7000001
:101E10006C000020F8B5044600F0F8F8254640357F
:101E20000526AE57274624370BE0606A00280AD003
:101E3000384600F0CBFD002801D000F04FF9761EA7
:101E400076B2002EF1DC0027FF436F7100F0EAF854
:101E500000F0DCF80426AE572046103000900BE06E
:101E6000206900280AD0009800F0B0FD002801D0B9
:101E700000F034F9761E76B2002EF1DC2F7100F0FE
:101E8000D1F8F8BDF8B50546002700F0A3F9284EB3
:101E90003068002801D1FFF7D1FEF06805423FD13C
:101EA000002D3DD00835680708D06807400F08218D
:101EB000081A4519680701D072B6FEE7002D2FD029
:101EC000706885422CD81A48103001460C6801E031
:101ED00020460C466168A94202D221680029F7D148
:101EE00031688C421CD0076821680160606808373F
:101EF000411B102908D96019420701D072B6FEE7CC
:101F000041606560FFF738FF61687068401A706073
:101F1000B268904200D2B060F0680143002003C470
:101F200000F086FD780701D072B6FEE73846F8BDAE
:101F30005400002004490868002803D00868826C17
:101F4000521C8264086870471800002010B50124F4
:101F5000031F24061C601B1F1960191F024B0B6016
:101F6000143940380A6010BD011E000843688268B9
:101F700001699A60836842685A604A68824201D166
:101F800082684A60002202610868401E0860086892
:101F900070470000034B03601846543008608020EF
:101FA0001060704770010020014608310022416036
:101FB000D243C1608260016100210160704700214D
:101FC0000161704730B50B685A1C02D002460832D6
:101FD00002E0026904E02246546825689D42FAD96D
:101FE00053684B6099608A60516008610168491CC0
:101FF000016030BD42684A6093688B6093685960A5
:10200000916008610168491C0160704772B604481C
:102010000168491C0160BFF34F8FBFF36F8F70479A
:102020006C00002005490868002804D0401E0860A4
:1020300000D162B6704772B6FEE700006C00002067
:1020400070B500281AD004460D4D083C6068E96858
:10205000084201D172B6FEE72268002A01D072B6AA
:10206000FEE78843606000F0B5F860686968401872
:1020700068602046FFF780FE00F0DAFC70BD0000CB
:10208000540000200120044900074860BFF34F8F2F
:10209000BFF36F8F7047000000ED00E010B5020045
:1020A0000FD00948806B002801D072B6FEE700F01F
:1020B00091F800211046FFF7EDFC00F0B9FC002874
:1020C00001D1FFF7DFFF10BD1800002002498A6A26
:1020D00002604969416070471800002001490120F1
:1020E000486270471800002010B50C46002809D03F
:1020F000054909681831FFF765FF01212046FFF700
:10210000C9FC10BD72B6FEE71800002070B50400CF
:102110002FD0A26C002A0ED0606C884200D30146FA
:10212000E06A884225D0012A23D1124D2A689442C0
:1021300003D172B6FEE772B6FEE7E162A269002A39
:1021400002DB0722511AA16114220B4E5043616930
:10215000801981420DD1201DFFF708FFE06AA969AF
:10216000884200D9A861142148438019211DFFF736
:1021700041FF70BD180000200004002010B586B09B
:102180000024039405AA04A903A80494FFF702FFFE
:1021900004990398009401910290002309A10B482F
:1021A000059A00F082FA0A490028486308D072B6FE
:1021B0000020C04308630120C8614C6100F03EF874
:1021C00006B010BD49444C4500000000811C0008C9
:1021D000180000200248816B491C81637047000091
:1021E0001800002010B51348816B002902D001218E
:1021F000416210BD0021416281690F4A02E000295D
:1022000015D0491E14234B43D358002BF7D0142369
:102210004B439A18536814465B6808345360A342D2
:1022200001D15B685360DA680260816110BD72B6EB
:10223000FEE70000180000200004002070B50F48E1
:10224000016AFF22120411430162016A1202114362
:1022500001620B4C00252561A5610A487D21C9005A
:102260000068FDF781FF401E60610720206106487D
:102270000560FDF72FFF002070BD000000ED00E0BD
:1022800000E000E0140000206C00002010B50246C1
:102290000021012000F012F80446FFF715FD20464A
:1022A00010BD38B50B46002200901146012000F009
:1022B00023F80446FFF708FD204638BDF8B5174659
:1022C0000E46050014D0002E14D070434830FFF79E
:1022D000D9FD04000AD0002146200155224648328B
:1022E0003B46314628460094FFF7FAFC2046F8BDED
:1022F00072B6FEE70020E9E7F8B5069D002806D093
:10230000002B06D0002A08D0002904D009E072B6BC
:10231000FEE772B6FEE772B6FEE7002901D072B69C
:10232000FEE748241C46012640339E712B4600944C
:10233000FFF7D6FC2046F8BD70B50D46040025D049
:10234000FFF764FE216CE06B48432168411861602F
:102350000021A1632168A160E06B216C401E48430D
:1023600021684118E1600021C943204640300171D5
:1023700041713038002D0BD0FFF716FE2046243077
:10238000FFF712FEFFF74EFE012070BD72B6FEE7AA
:1023900021690029F6D000F019FB0028F2D0FFF7E0
:1023A00071FEEFE7FFB5002683B01D46040003D0A1
:1023B0000498002802D006E072B6FEE7206C0028E0
:1023C00001D072B6FEE7022D04D1E06B012801D0E6
:1023D00072B6FEE700F0DEF90027002804D1059868
:1023E000002801D072B6FEE7FFF710FEA06BE16B8C
:1023F000884207D3022D05D00598002817D0002E5B
:1024000018D01BE02A4620460499FFF7CBFB616AEF
:10241000002903D02046243000F0D8FA002801D04B
:10242000FFF730FEFFF7FEFD012007B0F0BDFFF71C
:10243000F9FD22E06846FFF749FE0126FFF7F2FDAD
:10244000FFF7C8FEFFF7E2FD204640300421415669
:10245000491C00D1077105214156491C00D1477123
:10246000FFF7E0FD05A9684600F0C8F8002806D08F
:102470002046FFF7CFFC00F0DBFA0020D5E7FFF79E
:10248000C5FDA06BE16B884210D1FFF7CBFD204664
:1024900010300599FFF728FE2046FFF7BBFC00F03F
:1024A000C7FA0028A0D1FFF7EDFD9DE7FFF7BAFDC1
:1024B0002046FFF7AFFC00F0BBFA95E7F3B5002626
:1024C00083B0041E354604D0206C002803D072B6B9
:1024D000FEE772B6FEE700F05DF90027002804D1A0
:1024E0000498002801D072B6FEE7FFF78FFDA06BBD
:1024F000002817D0401EA0632068002802D1FFF7F3
:1025000019FD60602069002807D02046103000F0D7
:102510005DFA002801D0FFF7B5FDFFF783FD01202C
:1025200005B0F0BD0498002802D0002E07D00AE0C4
:10253000002D01D072B6FEE7FFF774FD5CE068463F
:10254000FFF7C4FD0126FFF76DFDFFF743FEFFF720
:102550005DFD2046403004214156491C00D10771E1
:1025600005214156491C00D14771FFF75BFD04A9C5
:10257000684600F043F80028204614D0FFF74AFCD4
:1025800000F056FA2046FFF71DFC0028ADD0002DC4
:1025900032D0FFF73BFD606A002828D0206B07216E
:1025A0000068091A24E0FFF70DFC002819D0206804
:1025B000002807D1FFF72AFD606800F0CBF9054637
:1025C000FFF730FD204624300499FFF78DFD2046AB
:1025D000FFF720FC00F02CFA002886D1FFF752FD0F
:1025E00083E72046FFF716FC00F022FA7DE7002182
:1025F0006068FFF78BFD9FE7002091E7F8B50C4678
:10260000050012D0002C12D0FFF700FD114B5A69C3
:102610006E682068911B471C0BD02F689B6A9F42F5
:102620000CD096420AD8012404E072B6FEE772B6D6
:10263000FEE70024FFF7F6FC2046F8BD884205D9E6
:10264000401A20602846FFF741FDF2E70020206095
:10265000E9E7000018000020FFB585B0164690009D
:102660000F9FFFF70FFC05001CD05420FFF70AFC5A
:10267000040014D000205121256308550E990091C3
:102680000390019702943246089B06990598FFF73C
:1026900035FB2046FFF72AFA012009B0F0BD284695
:1026A000FFF7CEFC0020C043F7E7F0B585B0074642
:1026B0000B9D0C9C0A98002D15D0002C15D054268B
:1026C0002563022551263555002504AE009001965C
:1026D000039502943846FFF711FB2046FFF706FAF0
:1026E000049805B0F0BD72B6FEE772B6FEE70000D2
:1026F000FFB5012681B01F460D46002814D00446C0
:10270000FFF784FC002F01D0E06C38602046403099
:102710000146007C02220A7403990B00FFF717F9A7
:10272000051006090F0D100072B6FEE7E16C294393
:1027300001E0E16C491CE16402E0022803D0E56499
:10274000012802D01DE000261BE0201DFFF70EFC33
:102750000E4DE06AA969884200D9A8611421484356
:102760000B494018211DFFF745FCA06A002801D045
:1027700072B6FEE7E06A2968C96A884201D9FFF7A4
:1027800081FCFFF74FFC304605B0F0BD180000207B
:10279000000400200648C169002904D0806B00288D
:1027A00003D00020704701207047022070470000CE
:1027B00018000020F8B52C4C0027A06B002808D08A
:1027C000206A401C2062606A002800D00127384639
:1027D000F8BD6669761C66610ED1606800680028E5
:1027E00001D072B6FEE76068A1686160A060A06A6F
:1027F000401CA062FFF7F4FA206B86420AD360689F
:102800000068002810D06068C068C56868688642A3
:102810000DD2206320681421C06A48431349085828
:102820000128D0D90127CEE70020C043F1E7281DB9
:10283000FFF79CFBA86A002803D028461830FFF752
:1028400095FBE86AA169884200D9A0611421484338
:1028500006494018291DFFF7CDFBE86A2168C96ABF
:102860008842CCD30127CAE71800002000040020CA
:10287000FFB581B01E4615460746FFF7C7FB1A4C49
:1028800020684030007C02280ED02068C16CB9431B
:10289000C1642068012140300174002E04D030460C
:1028A000FFF7F8F8FFF7EEFBFFF7BCFBFFF7AEFB17
:1028B000002D02D02068C06C286020684030007C69
:1028C000022801D0002505E02068C16C029A9143DE
:1028D000C16401252068002140300174FFF7A2FB8C
:1028E000284605B0F0BD00001800002070B500219A
:1028F0000446002828D0154D2868844201D072B6BD
:10290000FEE7A06C002808D0401EA064636CE26A59
:102910009A4219D0002802D016E072B6FEE7201DB8
:10292000FFF724FB606C0721E062081AA061E06AEF
:10293000A969884200D9A861142148430449401874
:10294000211DFFF757FB0121084670BD180000202C
:102950000004002070B504460020002C2AD0194D38
:10296000E16A2A68D26A914225D2A069002804DB74
:1029700028680721C06A081AA061E06A1422124E72
:10298000504361698019814210D1201DFFF7EEFA92
:102990002868C06AE062A969884200D9A861142148
:1029A00048438019211DFFF725FB02E02868C06A13
:1029B000E062012070BD616C2A68D26A9142F8D34E
:1029C00070BD0000180000200004002070B5C06831
:1029D000C468002C0BD0204618300646FFF7C6FA14
:1029E000114DA86B002804D0314610480FE072B694
:1029F000FEE7201DFFF7BAFAE06AA969884200D90C
:102A0000A861142148430949B4394018211DFFF732
:102A1000F1FAE06A2968C96A884202D9012068622D
:102A200070BD002070BD000018000020B40400201C
:102A3000F8B5284C0025A06B2E46002808D0FFF7DB
:102A4000E5FAA06B401EA063A06B002802D03DE019
:102A500072B6FEE72169204F00291DD136E0F868E3
:102A6000C56828461830FFF781FA281DFFF77EFA5F
:102A7000E86AA169884200D9A06114214843164937
:102A8000B4394018291DFFF7B5FAE86A2168C96A08
:102A9000884201D30120606238680028DFD1002D10
:102AA00001D0FFF79DF9256A002D09D00127FFF716
:102AB00081FE002800D067626D1EF8D100202062E0
:102AC000606A002802D00126FFF7DCFAFFF7AAFAB5
:102AD0003046F8BD18000020B40400206C2B00081C
:102AE000F913000800000000000000008000000052
:102AF0000000000000000000542B00087D140008B6
:102B0000FDFF000000000000800000000000000049
:102B100000000000602B000821150008FDFF0000E8
:102B20000000000080000000000000000000000025
:102B3000000000000000000001020304060708096D
:102B4000030406080C1018203000000000010203E6
:102B5000040000006D795461736B30320000000096
:102B60006D795461736B30330000000064656661F9
:102B7000756C745461736B00982B00080000002082
:102B80007000000068190008082C00087000002080
:102B90008014000078190008000000000000000008
:102BA0000000000000000000000000000000200005
:102BB0000000000000000000000000000000000015
:102BC0000000000000000000000000000000000005
:102BD00000000000000000000000000000000000F5
:102BE00000000000000000000000000000000000E5
:102BF00000000000000000000000000000000000D5
:082C000000000000AAAAAAAA24
:04000005080000C12E
:00000001FF
